:10000000020A3F8F993099FDC299220203CE120352
:10001000251203E61203C2120359E4FF12036C7F98
:100020000112037E7F011203907F011203A21202CC
:10003000E51203B4EF60030201151203E17BFF7ABE
:100040000379F01202C2E4FD7F011201F71201945C
:1000500012029FE50D7014750E0312011B7F5312DF
:1000600000037FE87E03120305806F150EE4FF1284
:10007000037EE50E60641203E17D04E4FF1201F7E4
:100080007BFF7A0479001202C27D037F011201F71F
:100090007BFF7A0479061202C27F967E0012030566
:1000A0007F0112037EE4FF1203901203E17BFF7ACB
:1000B0000379F01202C2E4FD7F011201F7120194EC
:1000C00012029FAF0D7E00EF64017004150E80A236
:1000D000EF4E709E751401750E03E51464017019DE
:1000E000F5147F0112039012011B1202E57F5312D7
:1000F00000037FE87E03120305E50E600302003172
:10010000FF12037EE4FF120390E4FF1203A27F01BB
:1001100012036C80E41202E5020031750E03E4FF65
:100120001203A21203E17F327E001203057D06E472
:10013000FF1201F77BFF7A04790F1202C27D047F60
:10014000011201F77BFF7A0479141202C27D347F19
:10015000F91203EB7FDC7E051203051203E17D0635
:10016000E4FF1201F77BFF7A04790F1202C27D04CB
:100170007F011201F77BFF7A04791E1202C27D24EF
:100180007FFA1203EB7FF47E011203057F01120355
:10019000A20203E1E4F515C3E5159404748094808C
:1001A000500B74082515F8E4F6051580EAE4F515FA
:1001B000C3E51594047480948050351208007408C7
:1001C0002515F8A60774082515F8E6FFC3943040F6
:1001D00012EFD39439500C1202787F327E00120352
:1001E00005800215157F327E00120305051580C0BB
:1001F000120800BF23FA22EF14600E14601214607C
:1002000016240370178D158013ED2440F515800C0E
:10021000ED2410F5158005ED2450F515E515448005
:10022000FF020251BB010CE58229F582E5833AF514
:1002300083E0225006E92582F8E622BBFE06E92586
:1002400082F8E222E58229F582E5833AF583E49398
:10025000228F16C2807F017E00120305D2817F01AA
:100260007E001203058516907F017E00120305C2F1
:10027000817F017E000203058F19D2807F017E00FD
:10028000120305D2817F017E001203058519907F3C
:10029000017E00120305C2817F017E00020305E496
:1002A000F50DFFEFC39404748094805014740F2FE5
:1002B000F8E6FE74082FF8E66E6003750D010F80F6
:1002C000E2228B158A168917E4F518AB15AA16A930
:1002D00017851882758300120224FF6007120278C6
:1002E000051880E7227D04E4FF1201F77BFF7A0402
:1002F00079281202C2E4FD7F011201F77BFF7A0424
:1003000079340202C2E4FDFCC3ED9FEC9E5015E47B
:10031000FBFA0BBB00010ABA02F8BB58F50DBD0091
:10032000010C80E422C280C2817F147E001203058A
:10033000E4F5907F381202517F0C1202517F0102C6
:100340000251050F3132323100010D00011400015C
:100350000E03011AFA011B2400759850C2B5C29809
:1003600053877F438920758DFDD28E22EFFD7C005F
:1003700064017003D2B622ED4C7002C2B622EFFDCA
:100380007C007003C28422ED64014C7002D284228E
:10039000EFFD7C007003C28522ED64014C7002D237
:1003A0008522EFFD7C007003C28622ED64014C7053
:1003B00002D28622D2B320B303E4FF2230B3027FFD
:1003C0000122758901851A8C851B8AD2A922B2B4B3
:1003D000C28D851A8C851B8A323098FDAF99C298E0
:1003E000227F01020251D2AFD28C228F1A8D1B22A2
:1003F000456E7465722050617373776F72643A0052
:1004000057726F6E670050617373776F7264004448
:100410006F6F72006973204F70656E656400697359
:1004200020436C6F7365640057656C636F6D652066
:100430002D5F2D00536563757269747920426F6F6B
:0404400074207800AC
:10080000D2A3D2A2D2A1D2A07F327E00120305C20F
:10081000A7D2A6D2A5D2A420A30D7F327E001203B8
:100820000530A3FD7F312220A20D7F327E0012030E
:100830000530A2FD7F322220A10D7F327E001203FF
:100840000530A1FD7F332220A00D7F327E001203F0
:100850000530A0FD7F4122D2A7C2A6D2A5D2A420F6
:10086000A30D7F327E0012030530A3FD7F342220CA
:10087000A20D7F327E0012030530A2FD7F352220BB
:10088000A10D7F327E0012030530A1FD7F362220AC
:10089000A00D7F327E0012030530A0FD7F4222D2E0
:1008A000A7D2A6C2A5D2A420A30D7F327E00120338
:1008B0000530A3FD7F372220A20D7F327E00120378
:1008C0000530A2FD7F382220A10D7F327E00120369
:1008D0000530A1FD7F392220A00D7F327E0012035A
:1008E0000530A0FD7F4322D2A7D2A6D2A5C2A42064
:1008F000A30D7F327E0012030530A3FD7F2A222044
:10090000A20D7F327E0012030530A2FD7F3022202F
:10091000A10D7F327E0012030530A1FD7F2322301E
:10092000A0030208007F327E0012030530A0FD7F85
:0209300044225F
:100A3F00787FE4F6D8FD75811B020A8602000EE46A
:100A4F0093A3F8E493A34003F68001F208DFF48048
:100A5F0029E493A3F85407240CC8C333C4540F4498
:100A6F0020C8834004F456800146F6DFE4800B0172
:100A7F0002040810204080900342E47E019360BC82
:100A8F00A3FF543F30E509541FFEE493A360010E0A
:100A9F00CF54C025E060A840B8E493A3FAE493A331
:100AAF00F8E493A3C8C582C8CAC583CAF0A3C8C552
:0C0ABF0082C8CAC583CADFE9DEE780BE3A
:00000001FF
